{
  "transactions": [
    {
      "hash": "0x731d982da3ba3510cc2033365dd4a0f104df63e75bd63dd87565a7308308e200",
      "transactionType": "CREATE",
      "contractName": "DecentMarketNFT",
      "contractAddress": "0xc378846fe23f26216aa42dabd832508ffd07080d",
      "function": null,
      "arguments": [
        "Decent Market NFT",
        "DMNFT"
      ],
      "transaction": {
        "from": "0xb7225fb2d5aaf885fb4e4028467afdce43ad5c0a",
        "gas": "0x2c858d",
        "value": "0x0",
        "input": "0x608060405234801561000f575f5ffd5b50604051612c9b380380612c9b833981810160405281019061003191906102ec565b338282815f90816100429190610572565b5080600190816100529190610572565b5050505f73ffffffffffffffffffffffffffffffffffffffff168173ffffffffffffffffffffffffffffffffffffffff16036100c5575f6040517f1e4fbdf70000000000000000000000000000000000000000000000000000000081526004016100bc9190610680565b60405180910390fd5b6100d4816100dc60201b60201c565b505050610699565b5f60075f9054906101000a900473ffffffffffffffffffffffffffffffffffffffff1690508160075f6101000a81548173ffffffffffffffffffffffffffffffffffffffff021916908373ffffffffffffffffffffffffffffffffffffffff1602179055508173ffffffffffffffffffffffffffffffffffffffff168173ffffffffffffffffffffffffffffffffffffffff167f8be0079c531659141344cd1fd0a4f28419497f9722a3daafe3b4186f6b6457e060405160405180910390a35050565b5f604051905090565b5f5ffd5b5f5ffd5b5f5ffd5b5f5ffd5b5f601f19601f8301169050919050565b7f4e487b71000000000000000000000000000000000000000000000000000000005f52604160045260245ffd5b6101fe826101b8565b810181811067ffffffffffffffff8211171561021d5761021c6101c8565b5b80604052505050565b5f61022f61019f565b905061023b82826101f5565b919050565b5f67ffffffffffffffff82111561025a576102596101c8565b5b610263826101b8565b9050602081019050919050565b8281835e5f83830152505050565b5f61029061028b84610240565b610226565b9050828152602081018484840111156102ac576102ab6101b4565b5b6102b7848285610270565b509392505050565b5f82601f8301126102d3576102d26101b0565b5b81516102e384826020860161027e565b91505092915050565b5f5f60408385031215610302576103016101a8565b5b5f83015167ffffffffffffffff81111561031f5761031e6101ac565b5b61032b858286016102bf565b925050602083015167ffffffffffffffff81111561034c5761034b6101ac565b5b610358858286016102bf565b9150509250929050565b5f81519050919050565b7f4e487b71000000000000000000000000000000000000000000000000000000005f52602260045260245ffd5b5f60028204905060018216806103b057607f821691505b6020821081036103c3576103c261036c565b5b50919050565b5f819050815f5260205f209050919050565b5f6020601f8301049050919050565b5f82821b905092915050565b5f600883026104257fffffffffffffffffffffffffffffffffffffffffffffffffffffffffffffffff826103ea565b61042f86836103ea565b95508019841693508086168417925050509392505050565b5f819050919050565b5f819050919050565b5f61047361046e61046984610447565b610450565b610447565b9050919050565b5f819050919050565b61048c83610459565b6104a06104988261047a565b8484546103f6565b825550505050565b5f5f905090565b6104b76104a8565b6104c2818484610483565b505050565b5b818110156104e5576104da5f826104af565b6001810190506104c8565b5050565b601f82111561052a576104fb816103c9565b610504846103db565b81016020851015610513578190505b61052761051f856103db565b8301826104c7565b50505b505050565b5f82821c905092915050565b5f61054a5f198460080261052f565b1980831691505092915050565b5f610562838361053b565b9150826002028217905092915050565b61057b82610362565b67ffffffffffffffff811115610594576105936101c8565b5b61059e8254610399565b6105a98282856104e9565b5f60209050601f8311600181146105da575f84156105c8578287015190505b6105d28582610557565b865550610639565b601f1984166105e8866103c9565b5f5b8281101561060f578489015182556001820191506020850194506020810190506105ea565b8683101561062c5784890151610628601f89168261053b565b8355505b6001600288020188555050505b505050505050565b5f73ffffffffffffffffffffffffffffffffffffffff82169050919050565b5f61066a82610641565b9050919050565b61067a81610660565b82525050565b5f6020820190506106935f830184610671565b92915050565b6125f5806106a65f395ff3fe608060405234801561000f575f5ffd5b5060043610610113575f3560e01c8063715018a6116100a0578063a22cb4651161006f578063a22cb465146102dd578063b88d4fde146102f9578063c87b56dd14610315578063e985e9c514610345578063f2fde38b1461037557610113565b8063715018a61461027957806375794a3c146102835780638da5cb5b146102a157806395d89b41146102bf57610113565b8063095ea7b3116100e7578063095ea7b3146101c557806323b872dd146101e157806342842e0e146101fd5780636352211e1461021957806370a082311461024957610113565b806275a3171461011757806301ffc9a71461014757806306fdde0314610177578063081812fc14610195575b5f5ffd5b610131600480360381019061012c9190611c1a565b610391565b60405161013e9190611c8c565b60405180910390f35b610161600480360381019061015c9190611cfa565b610421565b60405161016e9190611d3f565b60405180910390f35b61017f610481565b60405161018c9190611db8565b60405180910390f35b6101af60048036038101906101aa9190611e02565b610510565b6040516101bc9190611e3c565b60405180910390f35b6101df60048036038101906101da9190611e55565b61052b565b005b6101fb60048036038101906101f69190611e93565b610541565b005b61021760048036038101906102129190611e93565b610640565b005b610233600480360381019061022e9190611e02565b61065f565b6040516102409190611e3c565b60405180910390f35b610263600480360381019061025e9190611ee3565b610670565b6040516102709190611c8c565b60405180910390f35b610281610726565b005b61028b610739565b6040516102989190611c8c565b60405180910390f35b6102a9610742565b6040516102b69190611e3c565b60405180910390f35b6102c761076a565b6040516102d49190611db8565b60405180910390f35b6102f760048036038101906102f29190611f38565b6107fa565b005b610313600480360381019061030e9190612014565b610810565b005b61032f600480360381019061032a9190611e02565b61082d565b60405161033c9190611db8565b60405180910390f35b61035f600480360381019061035a9190612094565b610938565b60405161036c9190611d3f565b60405180910390f35b61038f600480360381019061038a9190611ee3565b6109c6565b005b5f61039a610a4a565b6008549050600160085f8282546103b191906120ff565b925050819055506103c28382610ad1565b6103cc8183610aee565b808373ffffffffffffffffffffffffffffffffffffffff167fe7cd4ce7f2a465edc730269a1305e8a48bad821e8fb7e152ec413829c01a53c4846040516104139190611db8565b60405180910390a392915050565b5f634906490660e01b7bffffffffffffffffffffffffffffffffffffffffffffffffffffffff1916827bffffffffffffffffffffffffffffffffffffffffffffffffffffffff1916148061047a575061047982610b48565b5b9050919050565b60605f805461048f9061215f565b80601f01602080910402602001604051908101604052809291908181526020018280546104bb9061215f565b80156105065780601f106104dd57610100808354040283529160200191610506565b820191905f5260205f20905b8154815290600101906020018083116104e957829003601f168201915b5050505050905090565b5f61051a82610c29565b5061052482610caf565b9050919050565b61053d8282610538610ce8565b610cef565b5050565b5f73ffffffffffffffffffffffffffffffffffffffff168273ffffffffffffffffffffffffffffffffffffffff16036105b1575f6040517f64a0ae920000000000000000000000000000000000000000000000000000000081526004016105a89190611e3c565b60405180910390fd5b5f6105c483836105bf610ce8565b610d01565b90508373ffffffffffffffffffffffffffffffffffffffff168173ffffffffffffffffffffffffffffffffffffffff161461063a578382826040517f64283d7b0000000000000000000000000000000000000000000000000000000081526004016106319392919061218f565b60405180910390fd5b50505050565b61065a83838360405180602001604052805f815250610810565b505050565b5f61066982610c29565b9050919050565b5f5f73ffffffffffffffffffffffffffffffffffffffff168273ffffffffffffffffffffffffffffffffffffffff16036106e1575f6040517f89c62b640000000000000000000000000000000000000000000000000000000081526004016106d89190611e3c565b60405180910390fd5b60035f8373ffffffffffffffffffffffffffffffffffffffff1673ffffffffffffffffffffffffffffffffffffffff1681526020019081526020015f20549050919050565b61072e610a4a565b6107375f610f0c565b565b5f600854905090565b5f60075f9054906101000a900473ffffffffffffffffffffffffffffffffffffffff16905090565b6060600180546107799061215f565b80601f01602080910402602001604051908101604052809291908181526020018280546107a59061215f565b80156107f05780601f106107c7576101008083540402835291602001916107f0565b820191905f5260205f20905b8154815290600101906020018083116107d357829003601f168201915b5050505050905090565b61080c610805610ce8565b8383610fcf565b5050565b61081b848484610541565b61082784848484611138565b50505050565b606061083882610c29565b505f60065f8481526020019081526020015f2080546108569061215f565b80601f01602080910402602001604051908101604052809291908181526020018280546108829061215f565b80156108cd5780601f106108a4576101008083540402835291602001916108cd565b820191905f5260205f20905b8154815290600101906020018083116108b057829003601f168201915b505050505090505f6108dd6112ea565b90505f8151036108f1578192505050610933565b5f8251111561092557808260405160200161090d9291906121fe565b60405160208183030381529060405292505050610933565b61092e84611300565b925050505b919050565b5f60055f8473ffffffffffffffffffffffffffffffffffffffff1673ffffffffffffffffffffffffffffffffffffffff1681526020019081526020015f205f8373ffffffffffffffffffffffffffffffffffffffff1673ffffffffffffffffffffffffffffffffffffffff1681526020019081526020015f205f9054906101000a900460ff16905092915050565b6109ce610a4a565b5f73ffffffffffffffffffffffffffffffffffffffff168173ffffffffffffffffffffffffffffffffffffffff1603610a3e575f6040517f1e4fbdf7000000000000000000000000000000000000000000000000000000008152600401610a359190611e3c565b60405180910390fd5b610a4781610f0c565b50565b610a52610ce8565b73ffffffffffffffffffffffffffffffffffffffff16610a70610742565b73ffffffffffffffffffffffffffffffffffffffff1614610acf57610a93610ce8565b6040517f118cdaa7000000000000000000000000000000000000000000000000000000008152600401610ac69190611e3c565b60405180910390fd5b565b610aea828260405180602001604052805f815250611366565b5050565b8060065f8481526020019081526020015f209081610b0c91906123c1565b507ff8e1a15aba9398e019f0b49df1a4fde98ee17ae345cb5f6b5e2c27f5033e8ce782604051610b3c9190611c8c565b60405180910390a15050565b5f7f80ac58cd000000000000000000000000000000000000000000000000000000007bffffffffffffffffffffffffffffffffffffffffffffffffffffffff1916827bffffffffffffffffffffffffffffffffffffffffffffffffffffffff19161480610c1257507f5b5e139f000000000000000000000000000000000000000000000000000000007bffffffffffffffffffffffffffffffffffffffffffffffffffffffff1916827bffffffffffffffffffffffffffffffffffffffffffffffffffffffff1916145b80610c225750610c2182611381565b5b9050919050565b5f5f610c34836113ea565b90505f73ffffffffffffffffffffffffffffffffffffffff168173ffffffffffffffffffffffffffffffffffffffff1603610ca657826040517f7e273289000000000000000000000000000000000000000000000000000000008152600401610c9d9190611c8c565b60405180910390fd5b80915050919050565b5f60045f8381526020019081526020015f205f9054906101000a900473ffffffffffffffffffffffffffffffffffffffff169050919050565b5f33905090565b610cfc8383836001611423565b505050565b5f5f610d0c846113ea565b90505f73ffffffffffffffffffffffffffffffffffffffff168373ffffffffffffffffffffffffffffffffffffffff1614610d4d57610d4c8184866115e2565b5b5f73ffffffffffffffffffffffffffffffffffffffff168173ffffffffffffffffffffffffffffffffffffffff1614610dd857610d8c5f855f5f611423565b600160035f8373ffffffffffffffffffffffffffffffffffffffff1673ffffffffffffffffffffffffffffffffffffffff1681526020019081526020015f205f82825403925050819055505b5f73ffffffffffffffffffffffffffffffffffffffff168573ffffffffffffffffffffffffffffffffffffffff1614610e5757600160035f8773ffffffffffffffffffffffffffffffffffffffff1673ffffffffffffffffffffffffffffffffffffffff1681526020019081526020015f205f82825401925050819055505b8460025f8681526020019081526020015f205f6101000a81548173ffffffffffffffffffffffffffffffffffffffff021916908373ffffffffffffffffffffffffffffffffffffffff160217905550838573ffffffffffffffffffffffffffffffffffffffff168273ffffffffffffffffffffffffffffffffffffffff167fddf252ad1be2c89b69c2b068fc378daa952ba7f163c4a11628f55a4df523b3ef60405160405180910390a4809150509392505050565b5f60075f9054906101000a900473ffffffffffffffffffffffffffffffffffffffff1690508160075f6101000a81548173ffffffffffffffffffffffffffffffffffffffff021916908373ffffffffffffffffffffffffffffffffffffffff1602179055508173ffffffffffffffffffffffffffffffffffffffff168173ffffffffffffffffffffffffffffffffffffffff167f8be0079c531659141344cd1fd0a4f28419497f9722a3daafe3b4186f6b6457e060405160405180910390a35050565b5f73ffffffffffffffffffffffffffffffffffffffff168273ffffffffffffffffffffffffffffffffffffffff160361103f57816040517f5b08ba180000000000000000000000000000000000000000000000000000000081526004016110369190611e3c565b60405180910390fd5b8060055f8573ffffffffffffffffffffffffffffffffffffffff1673ffffffffffffffffffffffffffffffffffffffff1681526020019081526020015f205f8473ffffffffffffffffffffffffffffffffffffffff1673ffffffffffffffffffffffffffffffffffffffff1681526020019081526020015f205f6101000a81548160ff0219169083151502179055508173ffffffffffffffffffffffffffffffffffffffff168373ffffffffffffffffffffffffffffffffffffffff167f17307eab39ab6107e8899845ad3d59bd9653f200f220920489ca2b5937696c318360405161112b9190611d3f565b60405180910390a3505050565b5f8373ffffffffffffffffffffffffffffffffffffffff163b11156112e4578273ffffffffffffffffffffffffffffffffffffffff1663150b7a0261117b610ce8565b8685856040518563ffffffff1660e01b815260040161119d94939291906124e2565b6020604051808303815f875af19250505080156111d857506040513d601f19601f820116820180604052508101906111d59190612540565b60015b611259573d805f8114611206576040519150601f19603f3d011682016040523d82523d5f602084013e61120b565b606091505b505f81510361125157836040517f64a0ae920000000000000000000000000000000000000000000000000000000081526004016112489190611e3c565b60405180910390fd5b805181602001fd5b63150b7a0260e01b7bffffffffffffffffffffffffffffffffffffffffffffffffffffffff1916817bffffffffffffffffffffffffffffffffffffffffffffffffffffffff1916146112e257836040517f64a0ae920000000000000000000000000000000000000000000000000000000081526004016112d99190611e3c565b60405180910390fd5b505b50505050565b606060405180602001604052805f815250905090565b606061130b82610c29565b505f6113156112ea565b90505f8151116113335760405180602001604052805f81525061135e565b8061133d846116a5565b60405160200161134e9291906121fe565b6040516020818303038152906040525b915050919050565b611370838361176f565b61137c5f848484611138565b505050565b5f7f01ffc9a7000000000000000000000000000000000000000000000000000000007bffffffffffffffffffffffffffffffffffffffffffffffffffffffff1916827bffffffffffffffffffffffffffffffffffffffffffffffffffffffff1916149050919050565b5f60025f8381526020019081526020015f205f9054906101000a900473ffffffffffffffffffffffffffffffffffffffff169050919050565b808061145b57505f73ffffffffffffffffffffffffffffffffffffffff168273ffffffffffffffffffffffffffffffffffffffff1614155b1561158d575f61146a84610c29565b90505f73ffffffffffffffffffffffffffffffffffffffff168373ffffffffffffffffffffffffffffffffffffffff16141580156114d457508273ffffffffffffffffffffffffffffffffffffffff168173ffffffffffffffffffffffffffffffffffffffff1614155b80156114e757506114e58184610938565b155b1561152957826040517fa9fbf51f0000000000000000000000000000000000000000000000000000000081526004016115209190611e3c565b60405180910390fd5b811561158b57838573ffffffffffffffffffffffffffffffffffffffff168273ffffffffffffffffffffffffffffffffffffffff167f8c5be1e5ebec7d5bd14f71427d1e84f3dd0314c0f7b2291e5b200ac8c7c3b92560405160405180910390a45b505b8360045f8581526020019081526020015f205f6101000a81548173ffffffffffffffffffffffffffffffffffffffff021916908373ffffffffffffffffffffffffffffffffffffffff16021790555050505050565b6115ed838383611862565b6116a0575f73ffffffffffffffffffffffffffffffffffffffff168373ffffffffffffffffffffffffffffffffffffffff160361166157806040517f7e2732890000000000000000000000000000000000000000000000000000000081526004016116589190611c8c565b60405180910390fd5b81816040517f177e802f00000000000000000000000000000000000000000000000000000000815260040161169792919061256b565b60405180910390fd5b505050565b60605f60016116b384611922565b0190505f8167ffffffffffffffff8111156116d1576116d0611af6565b5b6040519080825280601f01601f1916602001820160405280156117035781602001600182028036833780820191505090505b5090505f82602001820190505b600115611764578080600190039150507f3031323334353637383961626364656600000000000000000000000000000000600a86061a8153600a858161175957611758612592565b5b0494505f8503611710575b819350505050919050565b5f73ffffffffffffffffffffffffffffffffffffffff168273ffffffffffffffffffffffffffffffffffffffff16036117df575f6040517f64a0ae920000000000000000000000000000000000000000000000000000000081526004016117d69190611e3c565b60405180910390fd5b5f6117eb83835f610d01565b90505f73ffffffffffffffffffffffffffffffffffffffff168173ffffffffffffffffffffffffffffffffffffffff161461185d575f6040517f73c6ac6e0000000000000000000000000000000000000000000000000000000081526004016118549190611e3c565b60405180910390fd5b505050565b5f5f73ffffffffffffffffffffffffffffffffffffffff168373ffffffffffffffffffffffffffffffffffffffff161415801561191957508273ffffffffffffffffffffffffffffffffffffffff168473ffffffffffffffffffffffffffffffffffffffff1614806118da57506118d98484610938565b5b8061191857508273ffffffffffffffffffffffffffffffffffffffff1661190083610caf565b73ffffffffffffffffffffffffffffffffffffffff16145b5b90509392505050565b5f5f5f90507a184f03e93ff9f4daa797ed6e38ed64bf6a1f010000000000000000831061197e577a184f03e93ff9f4daa797ed6e38ed64bf6a1f010000000000000000838161197457611973612592565b5b0492506040810190505b6d04ee2d6d415b85acef810000000083106119bb576d04ee2d6d415b85acef810000000083816119b1576119b0612592565b5b0492506020810190505b662386f26fc1000083106119ea57662386f26fc1000083816119e0576119df612592565b5b0492506010810190505b6305f5e1008310611a13576305f5e1008381611a0957611a08612592565b5b0492506008810190505b6127108310611a38576127108381611a2e57611a2d612592565b5b0492506004810190505b60648310611a5b5760648381611a5157611a50612592565b5b0492506002810190505b600a8310611a6a576001810190505b80915050919050565b5f604051905090565b5f5ffd5b5f5ffd5b5f73ffffffffffffffffffffffffffffffffffffffff82169050919050565b5f611aad82611a84565b9050919050565b611abd81611aa3565b8114611ac7575f5ffd5b50565b5f81359050611ad881611ab4565b92915050565b5f5ffd5b5f5ffd5b5f601f19601f8301169050919050565b7f4e487b71000000000000000000000000000000000000000000000000000000005f52604160045260245ffd5b611b2c82611ae6565b810181811067ffffffffffffffff82111715611b4b57611b4a611af6565b5b80604052505050565b5f611b5d611a73565b9050611b698282611b23565b919050565b5f67ffffffffffffffff821115611b8857611b87611af6565b5b611b9182611ae6565b9050602081019050919050565b828183375f83830152505050565b5f611bbe611bb984611b6e565b611b54565b905082815260208101848484011115611bda57611bd9611ae2565b5b611be5848285611b9e565b509392505050565b5f82601f830112611c0157611c00611ade565b5b8135611c11848260208601611bac565b91505092915050565b5f5f60408385031215611c3057611c2f611a7c565b5b5f611c3d85828601611aca565b925050602083013567ffffffffffffffff811115611c5e57611c5d611a80565b5b611c6a85828601611bed565b9150509250929050565b5f819050919050565b611c8681611c74565b82525050565b5f602082019050611c9f5f830184611c7d565b92915050565b5f7fffffffff0000000000000000000000000000000000000000000000000000000082169050919050565b611cd981611ca5565b8114611ce3575f5ffd5b50565b5f81359050611cf481611cd0565b92915050565b5f60208284031215611d0f57611d0e611a7c565b5b5f611d1c84828501611ce6565b91505092915050565b5f8115159050919050565b611d3981611d25565b82525050565b5f602082019050611d525f830184611d30565b92915050565b5f81519050919050565b5f82825260208201905092915050565b8281835e5f83830152505050565b5f611d8a82611d58565b611d948185611d62565b9350611da4818560208601611d72565b611dad81611ae6565b840191505092915050565b5f6020820190508181035f830152611dd08184611d80565b905092915050565b611de181611c74565b8114611deb575f5ffd5b50565b5f81359050611dfc81611dd8565b92915050565b5f60208284031215611e1757611e16611a7c565b5b5f611e2484828501611dee565b91505092915050565b611e3681611aa3565b82525050565b5f602082019050611e4f5f830184611e2d565b92915050565b5f5f60408385031215611e6b57611e6a611a7c565b5b5f611e7885828601611aca565b9250506020611e8985828601611dee565b9150509250929050565b5f5f5f60608486031215611eaa57611ea9611a7c565b5b5f611eb786828701611aca565b9350506020611ec886828701611aca565b9250506040611ed986828701611dee565b9150509250925092565b5f60208284031215611ef857611ef7611a7c565b5b5f611f0584828501611aca565b91505092915050565b611f1781611d25565b8114611f21575f5ffd5b50565b5f81359050611f3281611f0e565b92915050565b5f5f60408385031215611f4e57611f4d611a7c565b5b5f611f5b85828601611aca565b9250506020611f6c85828601611f24565b9150509250929050565b5f67ffffffffffffffff821115611f9057611f8f611af6565b5b611f9982611ae6565b9050602081019050919050565b5f611fb8611fb384611f76565b611b54565b905082815260208101848484011115611fd457611fd3611ae2565b5b611fdf848285611b9e565b509392505050565b5f82601f830112611ffb57611ffa611ade565b5b813561200b848260208601611fa6565b91505092915050565b5f5f5f5f6080858703121561202c5761202b611a7c565b5b5f61203987828801611aca565b945050602061204a87828801611aca565b935050604061205b87828801611dee565b925050606085013567ffffffffffffffff81111561207c5761207b611a80565b5b61208887828801611fe7565b91505092959194509250565b5f5f604083850312156120aa576120a9611a7c565b5b5f6120b785828601611aca565b92505060206120c885828601611aca565b9150509250929050565b7f4e487b71000000000000000000000000000000000000000000000000000000005f52601160045260245ffd5b5f61210982611c74565b915061211483611c74565b925082820190508082111561212c5761212b6120d2565b5b92915050565b7f4e487b71000000000000000000000000000000000000000000000000000000005f52602260045260245ffd5b5f600282049050600182168061217657607f821691505b60208210810361218957612188612132565b5b50919050565b5f6060820190506121a25f830186611e2d565b6121af6020830185611c7d565b6121bc6040830184611e2d565b949350505050565b5f81905092915050565b5f6121d882611d58565b6121e281856121c4565b93506121f2818560208601611d72565b80840191505092915050565b5f61220982856121ce565b915061221582846121ce565b91508190509392505050565b5f819050815f5260205f209050919050565b5f6020601f8301049050919050565b5f82821b905092915050565b5f6008830261227d7fffffffffffffffffffffffffffffffffffffffffffffffffffffffffffffffff82612242565b6122878683612242565b95508019841693508086168417925050509392505050565b5f819050919050565b5f6122c26122bd6122b884611c74565b61229f565b611c74565b9050919050565b5f819050919050565b6122db836122a8565b6122ef6122e7826122c9565b84845461224e565b825550505050565b5f5f905090565b6123066122f7565b6123118184846122d2565b505050565b5b81811015612334576123295f826122fe565b600181019050612317565b5050565b601f8211156123795761234a81612221565b61235384612233565b81016020851015612362578190505b61237661236e85612233565b830182612316565b50505b505050565b5f82821c905092915050565b5f6123995f198460080261237e565b1980831691505092915050565b5f6123b1838361238a565b9150826002028217905092915050565b6123ca82611d58565b67ffffffffffffffff8111156123e3576123e2611af6565b5b6123ed825461215f565b6123f8828285612338565b5f60209050601f831160018114612429575f8415612417578287015190505b61242185826123a6565b865550612488565b601f19841661243786612221565b5f5b8281101561245e57848901518255600182019150602085019450602081019050612439565b8683101561247b5784890151612477601f89168261238a565b8355505b6001600288020188555050505b505050505050565b5f81519050919050565b5f82825260208201905092915050565b5f6124b482612490565b6124be818561249a565b93506124ce818560208601611d72565b6124d781611ae6565b840191505092915050565b5f6080820190506124f55f830187611e2d565b6125026020830186611e2d565b61250f6040830185611c7d565b818103606083015261252181846124aa565b905095945050505050565b5f8151905061253a81611cd0565b92915050565b5f6020828403121561255557612554611a7c565b5b5f6125628482850161252c565b91505092915050565b5f60408201905061257e5f830185611e2d565b61258b6020830184611c7d565b9392505050565b7f4e487b71000000000000000000000000000000000000000000000000000000005f52601260045260245ffdfea2646970667358221220df9d8ab25f89f49ee04ca99b50ef489f3a4f5bb5049be84a8a6483441d925e6a64736f6c634300081b0033000000000000000000000000000000000000000000000000000000000000004000000000000000000000000000000000000000000000000000000000000000800000000000000000000000000000000000000000000000000000000000000011446563656e74204d61726b6574204e46540000000000000000000000000000000000000000000000000000000000000000000000000000000000000000000005444d4e4654000000000000000000000000000000000000000000000000000000",
        "nonce": "0x0",
        "chainId": "0x89"
      },
      "additionalContracts": [],
      "isFixedGasLimit": false
    },
    {
      "hash": "0x5bd2d46fd5ad5308fbd8950b690290ac9959f10ca08e2ace6b844691c90ff6de",
      "transactionType": "CALL",
      "contractName": "DecentMarketNFT",
      "contractAddress": "0xc378846fe23f26216aa42dabd832508ffd07080d",
      "function": "mintTo(address,string)",
      "arguments": [
        "0xb7225Fb2D5AaF885fB4e4028467AfdcE43AD5c0a",
        "https://sapphire-efficient-penguin-931.mypinata.cloud/ipfs/bafkreihvngkhqwkjebcpcwpmzkrw476pf62auvk5yox6peqxlgrzns5wpq"
      ],
      "transaction": {
        "from": "0xb7225fb2d5aaf885fb4e4028467afdce43ad5c0a",
        "to": "0xc378846fe23f26216aa42dabd832508ffd07080d",
        "gas": "0x47e09",
        "value": "0x0",
        "input": "0x0075a317000000000000000000000000b7225fb2d5aaf885fb4e4028467afdce43ad5c0a0000000000000000000000000000000000000000000000000000000000000040000000000000000000000000000000000000000000000000000000000000007668747470733a2f2f73617070686972652d656666696369656e742d70656e6775696e2d3933312e6d7970696e6174612e636c6f75642f697066732f6261666b72656968766e676b6871776b6a656263706377706d7a6b7277343736706636326175766b35796f7836706571786c67727a6e733577707100000000000000000000",
        "nonce": "0x1",
        "chainId": "0x89"
      },
      "additionalContracts": [],
      "isFixedGasLimit": false
    },
    {
      "hash": "0x10ed2a3a43a3f765a74201123ee9dbd8541bd92001bcdf433ddea9d305d691ab",
      "transactionType": "CALL",
      "contractName": "DecentMarketNFT",
      "contractAddress": "0xc378846fe23f26216aa42dabd832508ffd07080d",
      "function": "mintTo(address,string)",
      "arguments": [
        "0xb7225Fb2D5AaF885fB4e4028467AfdcE43AD5c0a",
        "https://sapphire-efficient-penguin-931.mypinata.cloud/ipfs/bafkreifbmgz33x5akk2dhc6bdurpkw2gca5xwhhmwbs7i6ot6ritjp6uby"
      ],
      "transaction": {
        "from": "0xb7225fb2d5aaf885fb4e4028467afdce43ad5c0a",
        "to": "0xc378846fe23f26216aa42dabd832508ffd07080d",
        "gas": "0x3c583",
        "value": "0x0",
        "input": "0x0075a317000000000000000000000000b7225fb2d5aaf885fb4e4028467afdce43ad5c0a0000000000000000000000000000000000000000000000000000000000000040000000000000000000000000000000000000000000000000000000000000007668747470733a2f2f73617070686972652d656666696369656e742d70656e6775696e2d3933312e6d7970696e6174612e636c6f75642f697066732f6261666b72656966626d677a33337835616b6b326468633662647572706b773267636135787768686d7762733769366f74367269746a703675627900000000000000000000",
        "nonce": "0x2",
        "chainId": "0x89"
      },
      "additionalContracts": [],
      "isFixedGasLimit": false
    },
    {
      "hash": "0x7d43eb40533bc64b096e4a9e336c3f1bb875381a9102572e1eeecc83c04c618f",
      "transactionType": "CALL",
      "contractName": "DecentMarketNFT",
      "contractAddress": "0xc378846fe23f26216aa42dabd832508ffd07080d",
      "function": "mintTo(address,string)",
      "arguments": [
        "0xb7225Fb2D5AaF885fB4e4028467AfdcE43AD5c0a",
        "https://sapphire-efficient-penguin-931.mypinata.cloud/ipfs/bafkreierd5dhms5uogiyrwhpvj2xvcvnhuz6sgms35tgr5k4rx7k2ur6ym"
      ],
      "transaction": {
        "from": "0xb7225fb2d5aaf885fb4e4028467afdce43ad5c0a",
        "to": "0xc378846fe23f26216aa42dabd832508ffd07080d",
        "gas": "0x3c583",
        "value": "0x0",
        "input": "0x0075a317000000000000000000000000b7225fb2d5aaf885fb4e4028467afdce43ad5c0a0000000000000000000000000000000000000000000000000000000000000040000000000000000000000000000000000000000000000000000000000000007668747470733a2f2f73617070686972652d656666696369656e742d70656e6775696e2d3933312e6d7970696e6174612e636c6f75642f697066732f6261666b7265696572643564686d7335756f67697972776870766a32787663766e68757a3673676d733335746772356b347278376b32757236796d00000000000000000000",
        "nonce": "0x3",
        "chainId": "0x89"
      },
      "additionalContracts": [],
      "isFixedGasLimit": false
    }
  ],
  "receipts": [
    {
      "status": "0x1",
      "cumulativeGasUsed": "0x9055f8",
      "logs": [
        {
          "address": "0xc378846fe23f26216aa42dabd832508ffd07080d",
          "topics": [
            "0x8be0079c531659141344cd1fd0a4f28419497f9722a3daafe3b4186f6b6457e0",
            "0x0000000000000000000000000000000000000000000000000000000000000000",
            "0x000000000000000000000000b7225fb2d5aaf885fb4e4028467afdce43ad5c0a"
          ],
          "data": "0x",
          "blockHash": "0x444dd8233306da91810aa521ae39dad6606ce129862b3a2c5c51c20d27382673",
          "blockNumber": "0x496c966",
          "transactionHash": "0x731d982da3ba3510cc2033365dd4a0f104df63e75bd63dd87565a7308308e200",
          "transactionIndex": "0x33",
          "logIndex": "0x144",
          "removed": false
        },
        {
          "address": "0x0000000000000000000000000000000000001010",
          "topics": [
            "0x4dfe1bbbcf077ddc3e01291eea2d5c70c2b422b415d95645b9adcfd678cb1d63",
            "0x0000000000000000000000000000000000000000000000000000000000001010",
            "0x000000000000000000000000b7225fb2d5aaf885fb4e4028467afdce43ad5c0a",
            "0x00000000000000000000000090b11143a0cb64e067402307bc7f2276dcec8250"
          ],
          "data": "0x00000000000000000000000000000000000000000000000000ef373747bacc00000000000000000000000000000000000000000000000000027f7d0bdb9200000000000000000000000000000000000000000000000002e980d953489506c672000000000000000000000000000000000000000000000000019045d493d734000000000000000000000000000000000000000000000002e981c88a7fdcc19272",
          "blockHash": "0x444dd8233306da91810aa521ae39dad6606ce129862b3a2c5c51c20d27382673",
          "blockNumber": "0x496c966",
          "transactionHash": "0x731d982da3ba3510cc2033365dd4a0f104df63e75bd63dd87565a7308308e200",
          "transactionIndex": "0x33",
          "logIndex": "0x145",
          "removed": false
        }
      ],
      "logsBloom": "0x00000000000000000000000000000000000000000000000000800000000000000000000000000000000000000000000000008000000000000000000000000000000000000000000000000000000000800001000000000000000100000000000000000000020000000000000000000800000000080000000080010000000000440000000000800000000000000000000000000000000000000000000000040000200000000000000000000000000000000000000000000000000000000000004200008000000000000001000000000000000000000000000000100000000020000000040000000000000000000000000000040000000000000000000000100000",
      "type": "0x2",
      "transactionHash": "0x731d982da3ba3510cc2033365dd4a0f104df63e75bd63dd87565a7308308e200",
      "transactionIndex": "0x33",
      "blockHash": "0x444dd8233306da91810aa521ae39dad6606ce129862b3a2c5c51c20d27382673",
      "blockNumber": "0x496c966",
      "gasUsed": "0x223f59",
      "effectiveGasPrice": "0x6fc23aca1",
      "from": "0xb7225fb2d5aaf885fb4e4028467afdce43ad5c0a",
      "to": null,
      "contractAddress": "0xc378846fe23f26216aa42dabd832508ffd07080d"
    },
    {
      "status": "0x1",
      "cumulativeGasUsed": "0x939694",
      "logs": [
        {
          "address": "0xc378846fe23f26216aa42dabd832508ffd07080d",
          "topics": [
            "0xddf252ad1be2c89b69c2b068fc378daa952ba7f163c4a11628f55a4df523b3ef",
            "0x0000000000000000000000000000000000000000000000000000000000000000",
            "0x000000000000000000000000b7225fb2d5aaf885fb4e4028467afdce43ad5c0a",
            "0x0000000000000000000000000000000000000000000000000000000000000000"
          ],
          "data": "0x",
          "blockHash": "0x444dd8233306da91810aa521ae39dad6606ce129862b3a2c5c51c20d27382673",
          "blockNumber": "0x496c966",
          "transactionHash": "0x5bd2d46fd5ad5308fbd8950b690290ac9959f10ca08e2ace6b844691c90ff6de",
          "transactionIndex": "0x34",
          "logIndex": "0x146",
          "removed": false
        },
        {
          "address": "0xc378846fe23f26216aa42dabd832508ffd07080d",
          "topics": [
            "0xf8e1a15aba9398e019f0b49df1a4fde98ee17ae345cb5f6b5e2c27f5033e8ce7"
          ],
          "data": "0x0000000000000000000000000000000000000000000000000000000000000000",
          "blockHash": "0x444dd8233306da91810aa521ae39dad6606ce129862b3a2c5c51c20d27382673",
          "blockNumber": "0x496c966",
          "transactionHash": "0x5bd2d46fd5ad5308fbd8950b690290ac9959f10ca08e2ace6b844691c90ff6de",
          "transactionIndex": "0x34",
          "logIndex": "0x147",
          "removed": false
        },
        {
          "address": "0xc378846fe23f26216aa42dabd832508ffd07080d",
          "topics": [
            "0xe7cd4ce7f2a465edc730269a1305e8a48bad821e8fb7e152ec413829c01a53c4",
            "0x000000000000000000000000b7225fb2d5aaf885fb4e4028467afdce43ad5c0a",
            "0x0000000000000000000000000000000000000000000000000000000000000000"
          ],
          "data": "0x0000000000000000000000000000000000000000000000000000000000000020000000000000000000000000000000000000000000000000000000000000007668747470733a2f2f73617070686972652d656666696369656e742d70656e6775696e2d3933312e6d7970696e6174612e636c6f75642f697066732f6261666b72656968766e676b6871776b6a656263706377706d7a6b7277343736706636326175766b35796f7836706571786c67727a6e733577707100000000000000000000",
          "blockHash": "0x444dd8233306da91810aa521ae39dad6606ce129862b3a2c5c51c20d27382673",
          "blockNumber": "0x496c966",
          "transactionHash": "0x5bd2d46fd5ad5308fbd8950b690290ac9959f10ca08e2ace6b844691c90ff6de",
          "transactionIndex": "0x34",
          "logIndex": "0x148",
          "removed": false
        },
        {
          "address": "0x0000000000000000000000000000000000001010",
          "topics": [
            "0x4dfe1bbbcf077ddc3e01291eea2d5c70c2b422b415d95645b9adcfd678cb1d63",
            "0x0000000000000000000000000000000000000000000000000000000000001010",
            "0x000000000000000000000000b7225fb2d5aaf885fb4e4028467afdce43ad5c0a",
            "0x00000000000000000000000090b11143a0cb64e067402307bc7f2276dcec8250"
          ],
          "data": "0x0000000000000000000000000000000000000000000000000016b7b594bcd000000000000000000000000000000000000000000000000000019045d47e4d5d070000000000000000000000000000000000000000000002e981c88a7fdcc1927200000000000000000000000000000000000000000000000001798e1ee9908d070000000000000000000000000000000000000000000002e981df4235717e6272",
          "blockHash": "0x444dd8233306da91810aa521ae39dad6606ce129862b3a2c5c51c20d27382673",
          "blockNumber": "0x496c966",
          "transactionHash": "0x5bd2d46fd5ad5308fbd8950b690290ac9959f10ca08e2ace6b844691c90ff6de",
          "transactionIndex": "0x34",
          "logIndex": "0x149",
          "removed": false
        }
      ],
      "logsBloom": "0x0000000000000000000000000000000000000000000000000000000000000000000000000000000000000000000000000000800000000000000000000200000000000000000000000000000800000080000000000000200000010000000000000000000002000000000000000000080000000008000000008001001000000004000000000080000000000000000000000000000000000000000000000004000020000000000000000000000000000000200000000000000000000000000000c200008002000000000001000000000000000008000000000000100000000020000000040000000000200000000000000000040000000000000000000000100000",
      "type": "0x2",
      "transactionHash": "0x5bd2d46fd5ad5308fbd8950b690290ac9959f10ca08e2ace6b844691c90ff6de",
      "transactionIndex": "0x34",
      "blockHash": "0x444dd8233306da91810aa521ae39dad6606ce129862b3a2c5c51c20d27382673",
      "blockNumber": "0x496c966",
      "gasUsed": "0x3409c",
      "effectiveGasPrice": "0x6fc23aca1",
      "from": "0xb7225fb2d5aaf885fb4e4028467afdce43ad5c0a",
      "to": "0xc378846fe23f26216aa42dabd832508ffd07080d",
      "contractAddress": null
    },
    {
      "status": "0x1",
      "cumulativeGasUsed": "0x965198",
      "logs": [
        {
          "address": "0xc378846fe23f26216aa42dabd832508ffd07080d",
          "topics": [
            "0xddf252ad1be2c89b69c2b068fc378daa952ba7f163c4a11628f55a4df523b3ef",
            "0x0000000000000000000000000000000000000000000000000000000000000000",
            "0x000000000000000000000000b7225fb2d5aaf885fb4e4028467afdce43ad5c0a",
            "0x0000000000000000000000000000000000000000000000000000000000000001"
          ],
          "data": "0x",
          "blockHash": "0x444dd8233306da91810aa521ae39dad6606ce129862b3a2c5c51c20d27382673",
          "blockNumber": "0x496c966",
          "transactionHash": "0x10ed2a3a43a3f765a74201123ee9dbd8541bd92001bcdf433ddea9d305d691ab",
          "transactionIndex": "0x35",
          "logIndex": "0x14a",
          "removed": false
        },
        {
          "address": "0xc378846fe23f26216aa42dabd832508ffd07080d",
          "topics": [
            "0xf8e1a15aba9398e019f0b49df1a4fde98ee17ae345cb5f6b5e2c27f5033e8ce7"
          ],
          "data": "0x0000000000000000000000000000000000000000000000000000000000000001",
          "blockHash": "0x444dd8233306da91810aa521ae39dad6606ce129862b3a2c5c51c20d27382673",
          "blockNumber": "0x496c966",
          "transactionHash": "0x10ed2a3a43a3f765a74201123ee9dbd8541bd92001bcdf433ddea9d305d691ab",
          "transactionIndex": "0x35",
          "logIndex": "0x14b",
          "removed": false
        },
        {
          "address": "0xc378846fe23f26216aa42dabd832508ffd07080d",
          "topics": [
            "0xe7cd4ce7f2a465edc730269a1305e8a48bad821e8fb7e152ec413829c01a53c4",
            "0x000000000000000000000000b7225fb2d5aaf885fb4e4028467afdce43ad5c0a",
            "0x0000000000000000000000000000000000000000000000000000000000000001"
          ],
          "data": "0x0000000000000000000000000000000000000000000000000000000000000020000000000000000000000000000000000000000000000000000000000000007668747470733a2f2f73617070686972652d656666696369656e742d70656e6775696e2d3933312e6d7970696e6174612e636c6f75642f697066732f6261666b72656966626d677a33337835616b6b326468633662647572706b773267636135787768686d7762733769366f74367269746a703675627900000000000000000000",
          "blockHash": "0x444dd8233306da91810aa521ae39dad6606ce129862b3a2c5c51c20d27382673",
          "blockNumber": "0x496c966",
          "transactionHash": "0x10ed2a3a43a3f765a74201123ee9dbd8541bd92001bcdf433ddea9d305d691ab",
          "transactionIndex": "0x35",
          "logIndex": "0x14c",
          "removed": false
        },
        {
          "address": "0x0000000000000000000000000000000000001010",
          "topics": [
            "0x4dfe1bbbcf077ddc3e01291eea2d5c70c2b422b415d95645b9adcfd678cb1d63",
            "0x0000000000000000000000000000000000000000000000000000000000001010",
            "0x000000000000000000000000b7225fb2d5aaf885fb4e4028467afdce43ad5c0a",
            "0x00000000000000000000000090b11143a0cb64e067402307bc7f2276dcec8250"
          ],
          "data": "0x000000000000000000000000000000000000000000000000001312915732b00000000000000000000000000000000000000000000000000001798e1ee784eaeb0000000000000000000000000000000000000000000002e981df4235717e627200000000000000000000000000000000000000000000000001667b8d90523aeb0000000000000000000000000000000000000000000002e981f254c6c8b11272",
          "blockHash": "0x444dd8233306da91810aa521ae39dad6606ce129862b3a2c5c51c20d27382673",
          "blockNumber": "0x496c966",
          "transactionHash": "0x10ed2a3a43a3f765a74201123ee9dbd8541bd92001bcdf433ddea9d305d691ab",
          "transactionIndex": "0x35",
          "logIndex": "0x14d",
          "removed": false
        }
      ],
      "logsBloom": "0x0000000000000000000000000000000000000000000000000000000000000000000000000000000000000000000000000000800000000000000000000204000000000000000000000000000800000080000000000004200000010000000000000000000002000000000000000000080000000008000000008001001000000004000000000080000000000000000000000000000000000000000000000004000020000000000000000000000000000000200000000000000000000000000000c200008002000000000001000000000000000008000000000000100000000060000000040000000000200000000000000000040000000000000000000000100000",
      "type": "0x2",
      "transactionHash": "0x10ed2a3a43a3f765a74201123ee9dbd8541bd92001bcdf433ddea9d305d691ab",
      "transactionIndex": "0x35",
      "blockHash": "0x444dd8233306da91810aa521ae39dad6606ce129862b3a2c5c51c20d27382673",
      "blockNumber": "0x496c966",
      "gasUsed": "0x2bb04",
      "effectiveGasPrice": "0x6fc23aca1",
      "from": "0xb7225fb2d5aaf885fb4e4028467afdce43ad5c0a",
      "to": "0xc378846fe23f26216aa42dabd832508ffd07080d",
      "contractAddress": null
    },
    {
      "status": "0x1",
      "cumulativeGasUsed": "0x990c9c",
      "logs": [
        {
          "address": "0xc378846fe23f26216aa42dabd832508ffd07080d",
          "topics": [
            "0xddf252ad1be2c89b69c2b068fc378daa952ba7f163c4a11628f55a4df523b3ef",
            "0x0000000000000000000000000000000000000000000000000000000000000000",
            "0x000000000000000000000000b7225fb2d5aaf885fb4e4028467afdce43ad5c0a",
            "0x0000000000000000000000000000000000000000000000000000000000000002"
          ],
          "data": "0x",
          "blockHash": "0x444dd8233306da91810aa521ae39dad6606ce129862b3a2c5c51c20d27382673",
          "blockNumber": "0x496c966",
          "transactionHash": "0x7d43eb40533bc64b096e4a9e336c3f1bb875381a9102572e1eeecc83c04c618f",
          "transactionIndex": "0x36",
          "logIndex": "0x14e",
          "removed": false
        },
        {
          "address": "0xc378846fe23f26216aa42dabd832508ffd07080d",
          "topics": [
            "0xf8e1a15aba9398e019f0b49df1a4fde98ee17ae345cb5f6b5e2c27f5033e8ce7"
          ],
          "data": "0x0000000000000000000000000000000000000000000000000000000000000002",
          "blockHash": "0x444dd8233306da91810aa521ae39dad6606ce129862b3a2c5c51c20d27382673",
          "blockNumber": "0x496c966",
          "transactionHash": "0x7d43eb40533bc64b096e4a9e336c3f1bb875381a9102572e1eeecc83c04c618f",
          "transactionIndex": "0x36",
          "logIndex": "0x14f",
          "removed": false
        },
        {
          "address": "0xc378846fe23f26216aa42dabd832508ffd07080d",
          "topics": [
            "0xe7cd4ce7f2a465edc730269a1305e8a48bad821e8fb7e152ec413829c01a53c4",
            "0x000000000000000000000000b7225fb2d5aaf885fb4e4028467afdce43ad5c0a",
            "0x0000000000000000000000000000000000000000000000000000000000000002"
          ],
          "data": "0x0000000000000000000000000000000000000000000000000000000000000020000000000000000000000000000000000000000000000000000000000000007668747470733a2f2f73617070686972652d656666696369656e742d70656e6775696e2d3933312e6d7970696e6174612e636c6f75642f697066732f6261666b7265696572643564686d7335756f67697972776870766a32787663766e68757a3673676d733335746772356b347278376b32757236796d00000000000000000000",
          "blockHash": "0x444dd8233306da91810aa521ae39dad6606ce129862b3a2c5c51c20d27382673",
          "blockNumber": "0x496c966",
          "transactionHash": "0x7d43eb40533bc64b096e4a9e336c3f1bb875381a9102572e1eeecc83c04c618f",
          "transactionIndex": "0x36",
          "logIndex": "0x150",
          "removed": false
        },
        {
          "address": "0x0000000000000000000000000000000000001010",
          "topics": [
            "0x4dfe1bbbcf077ddc3e01291eea2d5c70c2b422b415d95645b9adcfd678cb1d63",
            "0x0000000000000000000000000000000000000000000000000000000000001010",
            "0x000000000000000000000000b7225fb2d5aaf885fb4e4028467afdce43ad5c0a",
            "0x00000000000000000000000090b11143a0cb64e067402307bc7f2276dcec8250"
          ],
          "data": "0x000000000000000000000000000000000000000000000000001312915732b00000000000000000000000000000000000000000000000000001667b8d8e9a9d670000000000000000000000000000000000000000000002e981f254c6c8b11272000000000000000000000000000000000000000000000000015368fc3767ed670000000000000000000000000000000000000000000002e9820567581fe3c272",
          "blockHash": "0x444dd8233306da91810aa521ae39dad6606ce129862b3a2c5c51c20d27382673",
          "blockNumber": "0x496c966",
          "transactionHash": "0x7d43eb40533bc64b096e4a9e336c3f1bb875381a9102572e1eeecc83c04c618f",
          "transactionIndex": "0x36",
          "logIndex": "0x151",
          "removed": false
        }
      ],
      "logsBloom": "0x0400000000000000000000000000000000000000000000000000000000000000000000000000000000000000000000000000800000000000000000000200000000000000000000000000000800000080000000000000200000010000000000000000000002000000000000000000080000000008000000008001001000000004000000000080000000000000000000000000000000000000000000000004000020000000000000000000010000000000200000000000000000000000000000c200008002000000000001000000000000000008000000000000100000000020000000040000000000200000000000000000040000008000000000000000100000",
      "type": "0x2",
      "transactionHash": "0x7d43eb40533bc64b096e4a9e336c3f1bb875381a9102572e1eeecc83c04c618f",
      "transactionIndex": "0x36",
      "blockHash": "0x444dd8233306da91810aa521ae39dad6606ce129862b3a2c5c51c20d27382673",
      "blockNumber": "0x496c966",
      "gasUsed": "0x2bb04",
      "effectiveGasPrice": "0x6fc23aca1",
      "from": "0xb7225fb2d5aaf885fb4e4028467afdce43ad5c0a",
      "to": "0xc378846fe23f26216aa42dabd832508ffd07080d",
      "contractAddress": null
    }
  ],
  "libraries": [],
  "pending": [],
  "returns": {},
  "timestamp": 1759031407,
  "chain": 137,
  "commit": "83ce0f2"
}