{
  "transactions": [
    {
      "hash": "0x4e78264f6b899dae3ed56494e328a0a7cd8b2e4893f402c74c1453ff4efacc1f",
      "transactionType": "CALL",
      "contractName": null,
      "contractAddress": "0x38afee7bb841309d98ac30284abdec6d12696d53",
      "function": "startArbitrage(address,address,address,uint256,address)",
      "arguments": [
        "0xeFe7Db40FF0D234A3aAb5628446CBBC694a58963",
        "0xa64FD3eDA604AAf78D5B163eAaAd38Ec279776e8",
        "0x66C5853DfCb89AdFAaE760D6BdD7B6D726105a9F",
        "100000000000000000000",
        "0xD150b45b2c76b65231B682FDbF896A304809209F"
      ],
      "transaction": {
        "from": "0xbfdb175c3a4ad1965d2137a18b88a63e16a38426",
        "to": "0x38afee7bb841309d98ac30284abdec6d12696d53",
        "gas": "0x63fa6",
        "value": "0x0",
        "input": "0x82ef8ef5000000000000000000000000efe7db40ff0d234a3aab5628446cbbc694a58963000000000000000000000000a64fd3eda604aaf78d5b163eaaad38ec279776e800000000000000000000000066c5853dfcb89adfaae760d6bdd7b6d726105a9f0000000000000000000000000000000000000000000000056bc75e2d63100000000000000000000000000000d150b45b2c76b65231b682fdbf896a304809209f",
        "nonce": "0x7b",
        "chainId": "0xaa36a7"
      },
      "additionalContracts": [],
      "isFixedGasLimit": false
    }
  ],
  "receipts": [
    {
      "status": "0x1",
      "cumulativeGasUsed": "0x56ad85",
      "logs": [
        {
          "address": "0x66c5853dfcb89adfaae760d6bdd7b6d726105a9f",
          "topics": [
            "0xddf252ad1be2c89b69c2b068fc378daa952ba7f163c4a11628f55a4df523b3ef",
            "0x000000000000000000000000efe7db40ff0d234a3aab5628446cbbc694a58963",
            "0x00000000000000000000000038afee7bb841309d98ac30284abdec6d12696d53"
          ],
          "data": "0x0000000000000000000000000000000000000000000000056bc75e2d63100000",
          "blockHash": "0x372c0ae927c4bca63f1c4b0b4a37d0ce43f82981880786eb693f78e3f3332a26",
          "blockNumber": "0x915199",
          "blockTimestamp": "0x69037e9c",
          "transactionHash": "0x4e78264f6b899dae3ed56494e328a0a7cd8b2e4893f402c74c1453ff4efacc1f",
          "transactionIndex": "0x26",
          "logIndex": "0x3a",
          "removed": false
        },
        {
          "address": "0x66c5853dfcb89adfaae760d6bdd7b6d726105a9f",
          "topics": [
            "0xddf252ad1be2c89b69c2b068fc378daa952ba7f163c4a11628f55a4df523b3ef",
            "0x00000000000000000000000038afee7bb841309d98ac30284abdec6d12696d53",
            "0x000000000000000000000000a64fd3eda604aaf78d5b163eaaad38ec279776e8"
          ],
          "data": "0x0000000000000000000000000000000000000000000000056bc75e2d63100000",
          "blockHash": "0x372c0ae927c4bca63f1c4b0b4a37d0ce43f82981880786eb693f78e3f3332a26",
          "blockNumber": "0x915199",
          "blockTimestamp": "0x69037e9c",
          "transactionHash": "0x4e78264f6b899dae3ed56494e328a0a7cd8b2e4893f402c74c1453ff4efacc1f",
          "transactionIndex": "0x26",
          "logIndex": "0x3b",
          "removed": false
        },
        {
          "address": "0xc10fb1a2a75ba3b43484ff26a4426f8e25586dd5",
          "topics": [
            "0xddf252ad1be2c89b69c2b068fc378daa952ba7f163c4a11628f55a4df523b3ef",
            "0x000000000000000000000000a64fd3eda604aaf78d5b163eaaad38ec279776e8",
            "0x00000000000000000000000038afee7bb841309d98ac30284abdec6d12696d53"
          ],
          "data": "0x000000000000000000000000000000000000000000000009032de898ce70a8b3",
          "blockHash": "0x372c0ae927c4bca63f1c4b0b4a37d0ce43f82981880786eb693f78e3f3332a26",
          "blockNumber": "0x915199",
          "blockTimestamp": "0x69037e9c",
          "transactionHash": "0x4e78264f6b899dae3ed56494e328a0a7cd8b2e4893f402c74c1453ff4efacc1f",
          "transactionIndex": "0x26",
          "logIndex": "0x3c",
          "removed": false
        },
        {
          "address": "0xa64fd3eda604aaf78d5b163eaaad38ec279776e8",
          "topics": [
            "0x1c411e9a96e071241c2f21f7726b17ae89e3cab4c78be50e062b03a9fffbbad1"
          ],
          "data": "0x00000000000000000000000000000000000000000000002086ac35105260000000000000000000000000000000000000000000000000002d329bc52d102f574d",
          "blockHash": "0x372c0ae927c4bca63f1c4b0b4a37d0ce43f82981880786eb693f78e3f3332a26",
          "blockNumber": "0x915199",
          "blockTimestamp": "0x69037e9c",
          "transactionHash": "0x4e78264f6b899dae3ed56494e328a0a7cd8b2e4893f402c74c1453ff4efacc1f",
          "transactionIndex": "0x26",
          "logIndex": "0x3d",
          "removed": false
        },
        {
          "address": "0xa64fd3eda604aaf78d5b163eaaad38ec279776e8",
          "topics": [
            "0xd78ad95fa46c994b6551d0da85fc275fe613ce37657fb8d5e3d130840159d822",
            "0x00000000000000000000000038afee7bb841309d98ac30284abdec6d12696d53",
            "0x00000000000000000000000038afee7bb841309d98ac30284abdec6d12696d53"
          ],
          "data": "0x0000000000000000000000000000000000000000000000056bc75e2d6310000000000000000000000000000000000000000000000000000000000000000000000000000000000000000000000000000000000000000000000000000000000000000000000000000000000000000000000000000000000009032de898ce70a8b3",
          "blockHash": "0x372c0ae927c4bca63f1c4b0b4a37d0ce43f82981880786eb693f78e3f3332a26",
          "blockNumber": "0x915199",
          "blockTimestamp": "0x69037e9c",
          "transactionHash": "0x4e78264f6b899dae3ed56494e328a0a7cd8b2e4893f402c74c1453ff4efacc1f",
          "transactionIndex": "0x26",
          "logIndex": "0x3e",
          "removed": false
        },
        {
          "address": "0xc10fb1a2a75ba3b43484ff26a4426f8e25586dd5",
          "topics": [
            "0xddf252ad1be2c89b69c2b068fc378daa952ba7f163c4a11628f55a4df523b3ef",
            "0x00000000000000000000000038afee7bb841309d98ac30284abdec6d12696d53",
            "0x000000000000000000000000efe7db40ff0d234a3aab5628446cbbc694a58963"
          ],
          "data": "0x0000000000000000000000000000000000000000000000060a9dc3fee2a1cb39",
          "blockHash": "0x372c0ae927c4bca63f1c4b0b4a37d0ce43f82981880786eb693f78e3f3332a26",
          "blockNumber": "0x915199",
          "blockTimestamp": "0x69037e9c",
          "transactionHash": "0x4e78264f6b899dae3ed56494e328a0a7cd8b2e4893f402c74c1453ff4efacc1f",
          "transactionIndex": "0x26",
          "logIndex": "0x3f",
          "removed": false
        },
        {
          "address": "0xc10fb1a2a75ba3b43484ff26a4426f8e25586dd5",
          "topics": [
            "0xddf252ad1be2c89b69c2b068fc378daa952ba7f163c4a11628f55a4df523b3ef",
            "0x00000000000000000000000038afee7bb841309d98ac30284abdec6d12696d53",
            "0x000000000000000000000000d150b45b2c76b65231b682fdbf896a304809209f"
          ],
          "data": "0x000000000000000000000000000000000000000000000002f8902499ebcedd7a",
          "blockHash": "0x372c0ae927c4bca63f1c4b0b4a37d0ce43f82981880786eb693f78e3f3332a26",
          "blockNumber": "0x915199",
          "blockTimestamp": "0x69037e9c",
          "transactionHash": "0x4e78264f6b899dae3ed56494e328a0a7cd8b2e4893f402c74c1453ff4efacc1f",
          "transactionIndex": "0x26",
          "logIndex": "0x40",
          "removed": false
        },
        {
          "address": "0x38afee7bb841309d98ac30284abdec6d12696d53",
          "topics": [
            "0x9fdefc319d5b857fa8ec2d985b19e06aa8e5b47517c20119b640ef7eb642d00d",
            "0x000000000000000000000000d150b45b2c76b65231b682fdbf896a304809209f",
            "0x000000000000000000000000efe7db40ff0d234a3aab5628446cbbc694a58963",
            "0x000000000000000000000000a64fd3eda604aaf78d5b163eaaad38ec279776e8"
          ],
          "data": "0x00000000000000000000000066c5853dfcb89adfaae760d6bdd7b6d726105a9f0000000000000000000000000000000000000000000000056bc75e2d63100000000000000000000000000000000000000000000000000002f8902499ebcedd7a",
          "blockHash": "0x372c0ae927c4bca63f1c4b0b4a37d0ce43f82981880786eb693f78e3f3332a26",
          "blockNumber": "0x915199",
          "blockTimestamp": "0x69037e9c",
          "transactionHash": "0x4e78264f6b899dae3ed56494e328a0a7cd8b2e4893f402c74c1453ff4efacc1f",
          "transactionIndex": "0x26",
          "logIndex": "0x41",
          "removed": false
        },
        {
          "address": "0xefe7db40ff0d234a3aab5628446cbbc694a58963",
          "topics": [
            "0x1c411e9a96e071241c2f21f7726b17ae89e3cab4c78be50e062b03a9fffbbad1"
          ],
          "data": "0x000000000000000000000000000000000000000000000030ca024f987b90000000000000000000000000000000000000000000000000003c406771c4c141cb39",
          "blockHash": "0x372c0ae927c4bca63f1c4b0b4a37d0ce43f82981880786eb693f78e3f3332a26",
          "blockNumber": "0x915199",
          "blockTimestamp": "0x69037e9c",
          "transactionHash": "0x4e78264f6b899dae3ed56494e328a0a7cd8b2e4893f402c74c1453ff4efacc1f",
          "transactionIndex": "0x26",
          "logIndex": "0x42",
          "removed": false
        },
        {
          "address": "0xefe7db40ff0d234a3aab5628446cbbc694a58963",
          "topics": [
            "0xd78ad95fa46c994b6551d0da85fc275fe613ce37657fb8d5e3d130840159d822",
            "0x00000000000000000000000038afee7bb841309d98ac30284abdec6d12696d53",
            "0x00000000000000000000000038afee7bb841309d98ac30284abdec6d12696d53"
          ],
          "data": "0x00000000000000000000000000000000000000000000000000000000000000000000000000000000000000000000000000000000000000060a9dc3fee2a1cb390000000000000000000000000000000000000000000000056bc75e2d631000000000000000000000000000000000000000000000000000000000000000000000",
          "blockHash": "0x372c0ae927c4bca63f1c4b0b4a37d0ce43f82981880786eb693f78e3f3332a26",
          "blockNumber": "0x915199",
          "blockTimestamp": "0x69037e9c",
          "transactionHash": "0x4e78264f6b899dae3ed56494e328a0a7cd8b2e4893f402c74c1453ff4efacc1f",
          "transactionIndex": "0x26",
          "logIndex": "0x43",
          "removed": false
        }
      ],
      "logsBloom": "0x00200000000000000002000080000000000000000000000000000800000002000000000000000000000000000000000000000000000000000000000000000000000008010000100000000008400400200000000000000000000000000000000000000000000000000000004001000010000000000000000020000011000000000000000000000001010000000000000200000000100000080200084000000100000000000000000000000800000000000000000000008000000400000000000000000802000000000000000000000000000000000000001000000000800000000000000100000000000000000000001000080000000000000000000001000000",
      "type": "0x2",
      "transactionHash": "0x4e78264f6b899dae3ed56494e328a0a7cd8b2e4893f402c74c1453ff4efacc1f",
      "transactionIndex": "0x26",
      "blockHash": "0x372c0ae927c4bca63f1c4b0b4a37d0ce43f82981880786eb693f78e3f3332a26",
      "blockNumber": "0x915199",
      "gasUsed": "0x4861f",
      "effectiveGasPrice": "0x166e3b",
      "from": "0xbfdb175c3a4ad1965d2137a18b88a63e16a38426",
      "to": "0x38afee7bb841309d98ac30284abdec6d12696d53",
      "contractAddress": null
    }
  ],
  "libraries": [],
  "pending": [],
  "returns": {},
  "timestamp": 1761836702,
  "chain": 11155111,
  "commit": "751c6b0"
}